{
  "_format": "hh-sol-artifact-1",
  "contractName": "Loteria",
  "sourceName": "contracts/Loteria.sol",
  "abi": [
    {
      "inputs": [],
      "stateMutability": "payable",
      "type": "constructor"
    },
    {
      "anonymous": false,
      "inputs": [
        {
          "indexed": false,
          "internalType": "address",
          "name": "jogador",
          "type": "address"
        },
        {
          "indexed": false,
          "internalType": "uint256",
          "name": "valor",
          "type": "uint256"
        }
      ],
      "name": "NovaAposta",
      "type": "event"
    },
    {
      "anonymous": false,
      "inputs": [
        {
          "indexed": false,
          "internalType": "address",
          "name": "vencedor",
          "type": "address"
        },
        {
          "indexed": false,
          "internalType": "uint256",
          "name": "valor_ganho",
          "type": "uint256"
        }
      ],
      "name": "SorteadoVencedor",
      "type": "event"
    },
    {
      "inputs": [],
      "name": "aposta_dono_banca",
      "outputs": [
        {
          "internalType": "address",
          "name": "",
          "type": "address"
        }
      ],
      "stateMutability": "view",
      "type": "function"
    },
    {
      "inputs": [],
      "name": "aposta_fechar",
      "outputs": [],
      "stateMutability": "nonpayable",
      "type": "function"
    },
    {
      "inputs": [],
      "name": "aposta_ganhador",
      "outputs": [
        {
          "internalType": "address",
          "name": "",
          "type": "address"
        }
      ],
      "stateMutability": "view",
      "type": "function"
    },
    {
      "inputs": [],
      "name": "aposta_taxa",
      "outputs": [
        {
          "internalType": "uint256",
          "name": "",
          "type": "uint256"
        }
      ],
      "stateMutability": "pure",
      "type": "function"
    },
    {
      "inputs": [],
      "name": "aposta_total",
      "outputs": [
        {
          "internalType": "uint256",
          "name": "",
          "type": "uint256"
        }
      ],
      "stateMutability": "view",
      "type": "function"
    },
    {
      "inputs": [],
      "name": "aposta_valor",
      "outputs": [
        {
          "internalType": "uint256",
          "name": "",
          "type": "uint256"
        }
      ],
      "stateMutability": "pure",
      "type": "function"
    },
    {
      "inputs": [],
      "name": "apostar",
      "outputs": [],
      "stateMutability": "payable",
      "type": "function"
    },
    {
      "inputs": [],
      "name": "sortear",
      "outputs": [],
      "stateMutability": "nonpayable",
      "type": "function"
    },
    {
      "inputs": [],
      "name": "state",
      "outputs": [
        {
          "internalType": "enum Loteria.States",
          "name": "",
          "type": "uint8"
        }
      ],
      "stateMutability": "view",
      "type": "function"
    }
  ],
  "bytecode": "0x60806040526000600260146101000a81548160ff02191690836001811115610050577f4e487b7100000000000000000000000000000000000000000000000000000000600052602160045260246000fd5b0217905550336000806101000a81548173ffffffffffffffffffffffffffffffffffffffff021916908373ffffffffffffffffffffffffffffffffffffffff160217905550611244806100a46000396000f3fe6080604052600436106100865760003560e01c8063c181126911610059578063c18112691461010f578063c19d93fb14610119578063c5e097ac14610144578063eaedde201461016f578063ef92d1051461019a57610086565b80632c60a9931461008b5780638ade2ac4146100a25780638ae8f4b7146100b9578063a50789a2146100e4575b600080fd5b34801561009757600080fd5b506100a06101c5565b005b3480156100ae57600080fd5b506100b76102a6565b005b3480156100c557600080fd5b506100ce61061d565b6040516100db9190610df9565b60405180910390f35b3480156100f057600080fd5b506100f9610646565b6040516101069190610fbd565b60405180910390f35b610117610654565b005b34801561012557600080fd5b5061012e6107fc565b60405161013b9190610e66565b60405180910390f35b34801561015057600080fd5b5061015961080f565b6040516101669190610fbd565b60405180910390f35b34801561017b57600080fd5b5061018461081d565b6040516101919190610df9565b60405180910390f35b3480156101a657600080fd5b506101af6108d7565b6040516101bc9190610fbd565b60405180910390f35b60008054906101000a900473ffffffffffffffffffffffffffffffffffffffff1673ffffffffffffffffffffffffffffffffffffffff163373ffffffffffffffffffffffffffffffffffffffff1614610253576040517f08c379a000000000000000000000000000000000000000000000000000000000815260040161024a90610efd565b60405180910390fd5b6001600260146101000a81548160ff0219169083600181111561029f577f4e487b7100000000000000000000000000000000000000000000000000000000600052602160045260246000fd5b0217905550565b60008054906101000a900473ffffffffffffffffffffffffffffffffffffffff1673ffffffffffffffffffffffffffffffffffffffff163373ffffffffffffffffffffffffffffffffffffffff1614610334576040517f08c379a000000000000000000000000000000000000000000000000000000000815260040161032b90610efd565b60405180910390fd5b60018081111561036d577f4e487b7100000000000000000000000000000000000000000000000000000000600052602160045260246000fd5b600260149054906101000a900460ff1660018111156103b5577f4e487b7100000000000000000000000000000000000000000000000000000000600052602160045260246000fd5b146103f5576040517f08c379a00000000000000000000000000000000000000000000000000000000081526004016103ec90610f3d565b60405180910390fd5b60006001805490501161043d576040517f08c379a000000000000000000000000000000000000000000000000000000000815260040161043490610f1d565b60405180910390fd5b60006104476108df565b9050600047905060018281548110610488577f4e487b7100000000000000000000000000000000000000000000000000000000600052603260045260246000fd5b9060005260206000200160009054906101000a900473ffffffffffffffffffffffffffffffffffffffff16600260006101000a81548173ffffffffffffffffffffffffffffffffffffffff021916908373ffffffffffffffffffffffffffffffffffffffff160217905550600260009054906101000a900473ffffffffffffffffffffffffffffffffffffffff1673ffffffffffffffffffffffffffffffffffffffff166108fc829081150290604051600060405180830381858888f1935050505015801561055b573d6000803e3d6000fd5b506105be6040518060400160405280601681526020017f47414e4841444f523a2025732076616c6f723a20257300000000000000000000815250600260009054906101000a900473ffffffffffffffffffffffffffffffffffffffff1683610975565b7f11b2cec915fc35e8d3af94c3939d566dee0c58916674ecc833b4ea3cedc9302f600260009054906101000a900473ffffffffffffffffffffffffffffffffffffffff1682604051610611929190610e14565b60405180910390a15050565b60008060009054906101000a900473ffffffffffffffffffffffffffffffffffffffff16905090565b6000655af3107a4000905090565b655af3107a4000341461069c576040517f08c379a000000000000000000000000000000000000000000000000000000000815260040161069390610f9d565b60405180910390fd5b600060018111156106d6577f4e487b7100000000000000000000000000000000000000000000000000000000600052602160045260246000fd5b600260149054906101000a900460ff16600181111561071e577f4e487b7100000000000000000000000000000000000000000000000000000000600052602160045260246000fd5b1461075e576040517f08c379a000000000000000000000000000000000000000000000000000000000815260040161075590610f7d565b60405180910390fd5b6001339080600181540180825580915050600190039060005260206000200160009091909190916101000a81548173ffffffffffffffffffffffffffffffffffffffff021916908373ffffffffffffffffffffffffffffffffffffffff1602179055507f365eee39e7103c495f325911604653439ce57158b11cf6099be755cdbbbb1a6033346040516107f2929190610e3d565b60405180910390a1565b600260149054906101000a900460ff1681565b60006509184e72a000905090565b60008073ffffffffffffffffffffffffffffffffffffffff16600260009054906101000a900473ffffffffffffffffffffffffffffffffffffffff1673ffffffffffffffffffffffffffffffffffffffff16116108af576040517f08c379a00000000000000000000000000000000000000000000000000000000081526004016108a690610f5d565b60405180910390fd5b600260009054906101000a900473ffffffffffffffffffffffffffffffffffffffff16905090565b600047905090565b600080444260016040516020016108f893929190610dc0565b6040516020818303038152906040528051906020012060001c9050600061095a6040518060400160405280601781526020017f72616e646f6d3a202573207c206c656e6774683a20257300000000000000000081525083600180549050610a14565b6001805490508261096b919061113a565b9050809250505090565b610a0f83838360405160240161098d93929190610e81565b6040516020818303038152906040527f07c81217000000000000000000000000000000000000000000000000000000007bffffffffffffffffffffffffffffffffffffffffffffffffffffffff19166020820180517bffffffffffffffffffffffffffffffffffffffffffffffffffffffff8381831617835250505050610ab3565b505050565b610aae838383604051602401610a2c93929190610ebf565b6040516020818303038152906040527f969cdd03000000000000000000000000000000000000000000000000000000007bffffffffffffffffffffffffffffffffffffffffffffffffffffffff19166020820180517bffffffffffffffffffffffffffffffffffffffffffffffffffffffff8381831617835250505050610ab3565b505050565b60008151905060006a636f6e736f6c652e6c6f679050602083016000808483855afa5050505050565b6000610ae88383610b12565b60208301905092915050565b610afd8161109b565b82525050565b610b0c8161104c565b82525050565b610b1b8161104c565b82525050565b6000610b2c82610fed565b610b368185611010565b9350610b4183610fd8565b8060005b83811015610b7957610b56826111c9565b610b608882610adc565b9750610b6b83611003565b925050600181019050610b45565b5085935050505092915050565b610b8f816110ad565b82525050565b6000610ba082610ff8565b610baa818561101b565b9350610bba8185602086016110e3565b610bc3816111dc565b840191505092915050565b6000610bdb60158361101b565b91507f534f4d454e544520444f4e4f2044412042414e434100000000000000000000006000830152602082019050919050565b6000610c1b60168361101b565b91507f4e414f204558495354452041504f535441444f524553000000000000000000006000830152602082019050919050565b6000610c5b60158361101b565b91507f534f4d454e54452042414e4341204645434841444100000000000000000000006000830152602082019050919050565b6000610c9b60168361101b565b91507f41504f535441444f52204e414f20444546494e49444f000000000000000000006000830152602082019050919050565b6000610cdb600d8361101b565b91507f42414e43412046454348414441000000000000000000000000000000000000006000830152602082019050919050565b6000610d1b60448361101b565b91507f56414c4f5220494e535546494349454e5445205041524120474152414e54495260008301527f2041504f5354412e2056414c4f522044412041504f535441202e30303031206560208301527f74686572000000000000000000000000000000000000000000000000000000006040830152606082019050919050565b610da381611091565b82525050565b610dba610db582611091565b611130565b82525050565b6000610dcc8286610da9565b602082019150610ddc8285610da9565b602082019150610dec8284610b21565b9150819050949350505050565b6000602082019050610e0e6000830184610b03565b92915050565b6000604082019050610e296000830185610af4565b610e366020830184610d9a565b9392505050565b6000604082019050610e526000830185610b03565b610e5f6020830184610d9a565b9392505050565b6000602082019050610e7b6000830184610b86565b92915050565b60006060820190508181036000830152610e9b8186610b95565b9050610eaa6020830185610b03565b610eb76040830184610d9a565b949350505050565b60006060820190508181036000830152610ed98186610b95565b9050610ee86020830185610d9a565b610ef56040830184610d9a565b949350505050565b60006020820190508181036000830152610f1681610bce565b9050919050565b60006020820190508181036000830152610f3681610c0e565b9050919050565b60006020820190508181036000830152610f5681610c4e565b9050919050565b60006020820190508181036000830152610f7681610c8e565b9050919050565b60006020820190508181036000830152610f9681610cce565b9050919050565b60006020820190508181036000830152610fb681610d0e565b9050919050565b6000602082019050610fd26000830184610d9a565b92915050565b60008190508160005260206000209050919050565b600081549050919050565b600081519050919050565b6000600182019050919050565b600081905092915050565b600082825260208201905092915050565b600073ffffffffffffffffffffffffffffffffffffffff82169050919050565b600061105782611071565b9050919050565b600081905061106c826111fa565b919050565b600073ffffffffffffffffffffffffffffffffffffffff82169050919050565b6000819050919050565b60006110a6826110bf565b9050919050565b60006110b88261105e565b9050919050565b60006110ca826110d1565b9050919050565b60006110dc82611071565b9050919050565b60005b838110156111015780820151818401526020810190506110e6565b83811115611110576000848401525b50505050565b6000611129611124836111ed565b61102c565b9050919050565b6000819050919050565b600061114582611091565b915061115083611091565b9250826111605761115f61116b565b5b828206905092915050565b7f4e487b7100000000000000000000000000000000000000000000000000000000600052601260045260246000fd5b7f4e487b7100000000000000000000000000000000000000000000000000000000600052602160045260246000fd5b60006111d58254611116565b9050919050565b6000601f19601f8301169050919050565b60008160001c9050919050565b6002811061120b5761120a61119a565b5b5056fea2646970667358221220dee879141026af3014bc8a424798a2bda00313dae4dfd4018643f93b0b56120564736f6c63430008000033",
  "linkReferences": {},
  "deployedLinkReferences": {}
}